:020000040000FA
:0400000080312828FB
:100008007E1480310B1D26280B110130F4070030B7
:10001800F53D0030F63D0030F73D0130F80700307F
:10002800F93DE8307806033003197906031D2628C0
:100038000130F0070030F13D0030F23D0030F33D73
:10004800F801F9017E10090080312A28F001F10138
:10005800F201F301F401F501F601F701F801F901E4
:100068002000A001A101A201A301A401A501A601EC
:10007800A701A8017E1020008031DE28B4282200C4
:100088000E1177082000A8007608A7007508A600BA
:100098007408A5000230FA007A08A00008002200BF
:1000A8000E1577082000A4007608A3007508A200A2
:1000B8007408A1000230FA007A08A0000800240899
:1000C80023042204210403198C2821087402FA004D
:1000D8002208753BFB002308763BFC002408773B8D
:1000E800FD007D08031D81287C08031D8128D03070
:1000F8007A0207307B3B031C08000030A400003064
:10010800A3000030A2000030A100A001A00A08004E
:1001180028082704260425040319B2282508740290
:10012800FA002608753BFB002708763BFC002808E8
:10013800773BFD007D08031DAA287C08031DAA281B
:10014800D0307A0207307B3B031C08000030A8003F
:100158000030A7000030A6000030A500A00108006C
:1001680020002008FA00FB017B08003A0319BD288B
:10017800C8287A08003A03195328013A0319432872
:10018800033A03196328C828080022000E15200026
:10019800A0010030A4000030A3000030A20000300D
:1001A800A1000030A8000030A7000030A6000030F1
:1001B800A50008008031F62080318031F12080319F
:1001C8008031FE2080318031FA2080318031C92091
:1001D8008031803142208031ED2821008C018E0150
:1001E8008D0108007230210099000800423021007A
:0A01F80095000800A0308B000800FD
:020000040001F9
:04000E00A4C1FFFC8E
:00000001FF
