:020000040000FA
:0400000080312E28F5
:100008007E1480310B1D27280B110130F6070030B4
:10001800F73D0030F83D0030F93D01302000D307AE
:100028000030D43DE8305306033003195406031D4D
:1000380027280130CF070030D03D0030D13D0030B7
:10004800D23DD301D4012000911E2C288131712189
:100058007E10090080313028F0308400223085007D
:100068000030FE000130FF0082317D228031F60130
:10007800F701F801F901463084000030850014309A
:10008800FE000030FF0082317D228031A0308400E4
:10009800003085002030FE000030FF0082317D22D4
:1000A8007E1020008131CF29D3288930F300823097
:1000B800F4008231262222000E1179082000CE0099
:1000C8007808CD007708CC007608CB000230A00075
:1000D8002008C6000800A430F3008230F400823102
:1000E8002622803122000E1579082000CA007808DF
:1000F800C9007708C8007608C7006A284A08490472
:10010800480447040319AB2847087602A0004808AA
:10011800773BA1004908783BA2004A08793BA30035
:100128002308031DA0282208031DA028D030200280
:100138000730213B031C08000030CA000030C9000A
:100148000030C8000030C700C601C60A08004E08C3
:100158004D044C044B040319D1284B087602A00027
:100168004C08773BA1004D08783BA2004E08793B2C
:10017800A3002308031DC9282208031DC928D0305D
:1001880020020730213B031C08000030CE0000305D
:10019800CD000030CC000030CB00C60108002000A4
:1001A8004608A000A1012108003A0319DC28E72825
:1001B8002008003A03196F28013A03195928033A0D
:1001C80003198228E72808002000C301223086008E
:1001D800003087002030A00000301E00A00BF1285E
:1001E8005729570803190800D901D90A080081318D
:1001F800F321803172082000C5007108C40044084A
:100208004504031920294408860045088700010889
:10021800A0004308223E8600870120088100813122
:10022800F321803172082000C5007108C400013034
:10023800A0002008C30703293B30F3008230F400F4
:100248008231262280312230F3000030F4008231DE
:10025800262280317B30F3008230F400823126225E
:100268008031823192228031003A031D41290230C7
:100278002000A0002008D90008002000D9010800AB
:100288008231C02280312000D9016F30F3008230E2
:10029800F4008231262208006030F3008230F40036
:1002A8008231262208005908A000A1012108003A3D
:1002B80003195F2970292008003A0319F528013A23
:1002C80003197029033A0319FB28013A0319442931
:1002D800073A031950297029080023001908F0006B
:1002E8007008F20082319B228131003A031DA42953
:1002F8000A30720603198B290D30720603198B29EF
:10030800720803198B2903307206031D9129F20123
:100318000230F00070082000D90020005608F03E96
:10032800F000F1012230F13D700886007108870065
:10033800720881005608013EF0007008D6000800D7
:100348000330F00070082000D90008002A342A344D
:100358002A342A342A342A342A342A342A342A34A5
:10036800533479347334743465346D3420345334ED
:10037800743461347234743469346E3467342A34B2
:100388002A342A342A342A342A342A342A342A3475
:100398002A340A3400348231BC2281318231AC22C1
:1003A80081318231B22281318231C422813182315C
:1003B8001122813182314E228131AA30F3008130FD
:1003C800F4008231262281318231B82281316400E1
:1003D8008031582081318031E8208131F229823101
:1003E80092228131003A0319FC29F101F201080037
:1003F80020005508F3007308F5005508013EF30086
:100408007308D5007508F03EF300F4012230F43D7E
:100418007308F1007408F200080022000E1520008D
:10042800C6010030CA000030C9000030C8000030E2
:10043800C7000030CE000030CD000030CC000030C6
:10044800CB000800730884007408850012000319A3
:10045800080023009E1C2D2A730884007408850058
:1004680000089A000130F3070030F43D262A523480
:1004780065346334653469347634653464342034DF
:1004880053347434723469346E3467343A342034F3
:100498000A34003422001D159D1723009F151030C3
:1004A8009B009C011E159E161D161E129D172000EE
:1004B800D601D501D90108004634693466346F3451
:1004C800203445346D347034743479342134213413
:1004D80020340A3400344634693466346F342034A6
:1004E800463475346C346C342134213420340A3465
:1004F80000346400800101310130FE020030FF3B0E
:100508007F087E04031900347E2A4C344534443471
:1005180020344F34463446340A3400342000560818
:100528005506031D992A01300800003008002000F4
:10053800560A5506031DA22A01300800003008009B
:100548004C344534443420344F344E340A34003467
:1005580021008C010E110E128D0108008B170B174C
:100568008B16210091160800193021009700080009
:1005780072302100990008002000D601D50108003A
:0805880042302100950008003B
:020000040001F9
:04000E00BCC1FFFC76
:00000001FF
