:020000040000FA
:0400000080313028F3
:100008007E1480310B1D27280B110130F0070030BA
:10001800F13D0030F23D0030F33D01302000D107C2
:100028000030D23DE8305106033003195206031D53
:1000380027280130CD070030CE3D0030CF3D0030BD
:10004800D03DD101D2012000911E2E280130F600AA
:100058007608D3007E10090080313228F030840001
:10006800223085000030FE000130FF0082313D2241
:100078008031F001F101F201F301F401F50144309E
:100088008400003085001230FE000030FF0082310D
:100098003D228031A0308400003085002030FE00F1
:1000A8000030FF0082313D227E10200081319F29DF
:1000B800D7284930F7008230F8008131E621220044
:1000C8000E1173082000CC007208CB007108CA001A
:1000D8007008C9000230A0002008C400080052308F
:1000E800F7008230F8008131E621803122000E15B8
:1000F80073082000C8007208C7007108C60070089D
:10010800C5006E2848084704460445040319AF286B
:1001180045087002A0004608713BA1004708723BE1
:10012800A2004808733BA3002308031DA428220843
:10013800031DA428D03020020730213B031C0800EF
:100148000030C8000030C7000030C6000030C500CD
:10015800C401C40A08004C084B044A0449040319A2
:10016800D52849087002A0004A08713BA1004B0835
:10017800723BA2004C08733BA3002308031DCD2843
:100188002208031DCD28D03020020730213B031C54
:1001980008000030CC000030CB000030CA0000302E
:1001A800C900C401080020004408A000A1012108DA
:1001B800003A0319E028EB282008003A03197328AD
:1001C800013A03195D28033A03198628EB28080029
:1001D8002000C00120308600003087002030FA005F
:1001E80000301E00FA0BF5285B2953080319080094
:1001F800D501D50A080023001908813175218031FD
:10020800FA007A082000C1004108031D08000330E5
:10021800FA007A08D50008008131B82180317808C1
:100228002000C3007708C2004208430403192929A3
:1002380042088600430887000108FA004008203E6B
:10024800860087017A0881001829FB30F700813081
:10025800F8008131E62180312030F7000030F800C5
:100268008131E62180313B30F7008230F80081315E
:10027800E6218031823162228031003A031D4A2909
:100288000230FA007A082000D50008002000D501C5
:1002980008002F30F7008230F8008131E62108008D
:1002A8002030F7008230F8008131E6210800550837
:1002B800FA00FB017B08003A0319632974297A08BC
:1002C800003A0319F928013A0319FF28033A0319D8
:1002D8001029013A03194D29073A03195429742999
:1002E8000800F90082315A228131003A031D9D2904
:1002F8000A307906031984290D307906031D8A29E5
:10030800F9010230F70077082000D5007508F03EA3
:10031800F700F8012230F83D770886007808870052
:10032800790881007508013EF7007708F50001306B
:1003380008000030080082317622813182316A2239
:10034800813182317022813182317A228131813149
:10035800D121813182310E22813180315C2081317D
:100368008031EC208131B129823162228131003A19
:100378000319C129F701F80108007408F800780882
:10038800F9007408013EF8007808F4007908F03E96
:10039800F700F8012230F83D080022000E15200071
:1003A800C4010030C8000030C7000030C60000306B
:1003B800C5000030CC000030CB000030CA0000304F
:1003C800C90008007708840078088500120003191E
:1003D800080023009E1CED29770884007808850012
:1003E80000089A000130F7070030F83DE62952343A
:1003F8006534633465346934763465346434203460
:1004080053347434723469346E3467343A34203473
:100418000A34003422001D159D1723009F15103043
:100428009B009C011E159E161D161E129D17F50198
:10043800F4012000D50108004634693466346F346D
:10044800203445346D347034743479342134213493
:1004580020340A3400344634693466346F34203426
:10046800463475346C346C342134213420340A34E5
:1004780000346400800101310130FE020030FF3B8E
:100488007F087E04031900343E2A4C344534443432
:1004980020344F34463446340A3400344C3445341E
:1004A800443420344F344E340A340034750A740608
:1004B8000319602A01300800003008007508740626
:1004C800031D682A013008000030080021008C0153
:1004D8000E110E128D0108008B170B178B162100B9
:1004E800911608007230210099000800423021005E
:0404F8009500080063
:020000040001F9
:04000E00A4C1FFFC8E
:00000001FF
