:020000040000FA
:0400000080313228F1
:100008007E1480310B1D27280B1101302000AD070D
:100018000030AE3D0030AF3D0030B03D0130B1079B
:100028000030B23DE8303106033003193206031DB3
:1000380027280130A9070030AA3D0030AB3D003029
:10004800AC3DB101B2012000911E30280130FB0007
:100058007B08FD00813142217E100900803134285F
:1000680070308400233085008030FE000030FF00AF
:100078008131BA218031FC01FD012030840000303B
:1000880085001330FE000030FF008131BA217E1058
:10009800200081317029CA28C630B8008130B900E3
:1000A8008031DF2022000E1120003008A8002F0820
:1000B800A7002E08A6002D08A5000230BB003B08AB
:1000C800A0000800CF30B8008130B9008031DF20AF
:1000D800803122000E1520003008A4002F08A3004C
:1000E8002E08A2002D08A100612824082304220458
:1000F80021040319A22821082D02BB0022082E3B47
:10010800BC0023082F3BBD002408303BBE003E083E
:10011800031D97283D08031D9728D0303B02073060
:100128003C3B031C08000030A4000030A300003052
:10013800A2000030A100A001A00A08002808270496
:10014800260425040319C82825082D02BB00260803
:100158002E3BBC0027082F3BBD002808303BBE00C3
:100168003E08031DC0283D08031DC028D0303B02AF
:1001780007303C3B031C08000030A8000030A700F3
:100188000030A6000030A500A001080020002008CB
:10019800BB00BC013C08003A0319D328DE283B0801
:1001A800003A03196628013A03195028033A03193B
:1001B8007928DE28080020003908B4003808B30080
:1001C80081312A2180310030200034028130031926
:1001D8003302031808003808840039088500120023
:1001E8000319080023009E1CF62820003808840004
:1001F80039088500000823009A0001302000B8075C
:100208000030B93DEF287608F1007508F00081311B
:1002180059218131003071028130031970020318AD
:100228000800750884007608850012000319080084
:1002380023009E1C1C297508840076088500000888
:100248009A000130F5070030F63D152920003408E2
:10025800B7003308B600330884003408850012005C
:1002680003193B290130B3070030B43D2F29360864
:100278003302B3003708343BB40008007D08031983
:1002880008009B30F5008130F6008131072181316B
:1002980023001908F8007808F900FA017930F50008
:1002A8000030F6008131072108007108F400700859
:1002B800F300700884007108850012000319692989
:1002C8000130F0070030F13D5D2973087002F0003D
:1002D8007408713BF10008008131E32181318131DB
:1002E800D72181318131DD2181318131E72181318E
:1002F8008131862181318131AC21813180314F209A
:100308008131822922000E152000A0010030A400AE
:100318000030A3000030A2000030A1000030A80087
:100328000030A7000030A6000030A50008005234B5
:100338006534633465346934763465346434203420
:1003480044346134743461343A3420340A34003427
:1003580022001D159D1723009F1510309B009C013E
:100368001E159E161D161E129D170800640080019A
:1003780001310130FE020030FF3B7F087E04031983
:100388000034BB294C344534443420344F3446348B
:1003980046340A3400344C344534443420344F3421
:1003A8004E340A34003421008C010E110E128D01D6
:1003B80008008B170B178B16210091160800723056
:0E03C800210099000800423021009500080035
:020000040001F9
:04000E00A4C1FFFC8E
:00000001FF
